:100000000C9434100C941C130C9452130C94511037
:100010000C9451100C9451100C9451100C945110DC
:100020000C9451100C9451100C9451100C945110CC
:100030000C9451100C9451100C9451100C945110BC
:100040000C941F150C9451100C94A7160C9451107D
:100050000C9451100C9451100C9451100C9451109C
:100060000C9451100C9451100000000055011D0219
:10007000AB0218037203BE0300043A046E049D042D
:10008000C704EF0413053505550573058F05AA054B
:10009000C305DB05F20508061D06310644065706B2
:1000A00069067A068B069B06AA06B906C806D60616
:1000B000E406F206FF060C071807240730073C0782
:1000C000470752075D07680772077C078607900796
:1000D0009907A307AC07B507BE07C707CF07D8071F
:1000E000E007E807F007F807000807080F081608F8
:1000F0001D0825082C0833083A08400847084E0810
:1001000054085B08610867086D0874087A0880085D
:1001100085088B08910897089C08A208A708AD08D5
:10012000B208B808BD08C208C708CC08D108D6086C
:10013000DB08E008E508EA08EF08F308F808FD081E
:10014000010906090A090F09130917091C092009E1
:10015000240929092D093109350939093D094109C0
:10016000450949094D095109550959095C096009B1
:10017000640968096B096F09730976097A097D09B1
:100180008109840988098B098F09920996099909BF
:100190009C09A009A309A609A909AD09B009B309D9
:1001A000B609B909BC09C009C309C609C909CC09FE
:1001B000CF09D209D509D809DB09DE09E109E3092C
:1001C000E609E909EC09EF09F209F409F709FA0966
:1001D000FD09FF09020A050A070A0A0A0D0A0F0AA1
:1001E000120A150A170A1A0A1C0A1F0A220A240AE6
:1001F000270A290A2C0A2E0A310A330A350A380A34
:100200003A0A3D0A3F0A410A440A460A490A4B0A89
:100210004D0A500A520A540A560A590A5B0A5D0AE4
:100220005F0A620A640A660A680A6B0A6D0A6F0A44
:10023000710A730A750A770A7A0A7C0A7E0A800AAA
:10024000820A840A860A880A8A0A8C0A8E0A900A16
:10025000920A940A960A980A9A0A9C0A9E0AA00A86
:10026000A20AA40AA60AA80AAA0AAC0AAE0AB00AF6
:10027000B20AB40AB50AB70AB90ABB0ABD0ABF0A6C
:10028000C10AC20AC40AC60AC80ACA0ACC0ACD0AE6
:10029000CF0AD10AD30AD40AD60AD80ADA0ADB0A64
:1002A000DD0ADF0AE10AE20AE40AE60AE70AE90AE5
:1002B000EB0AED0AEE0AF00AF20AF30AF50AF70A67
:1002C000F80AFA0AFB0AFD0AFF0A000B020B040BEC
:1002D000050B070B080B0A0B0B0B0D0B0F0B100B71
:1002E000120B130B150B160B180B190B1B0B1D0BFD
:1002F0001E0B200B210B230B240B260B270B290B8A
:100300002A0B2C0B2D0B2E0B300B310B330B340B1C
:10031000360B370B390B3A0B3C0B3D0B3E0B400BAE
:10032000410B430B440B450B470B480B4A0B4B0B44
:100330004C0B4E0B4F0B510B520B530B550B560BDB
:10034000570B590B5A0B5B0B5D0B5E0B5F0B610B75
:10035000620B630B650B660B670B690B6A0B6B0B10
:100360006D0B6E0B6F0B700B720B730B740B760BAC
:10037000770B780B790B7B0B7C0B7D0B7E0B800B4B
:10038000810B820B830B850B860B870B880B890BEC
:100390008B0B8C0B8D0B8E0B900B910B920B930B8D
:1003A000940B960B970B980B990B9A0B9B0B9D0B31
:1003B0009E0B9F0BA00BA10BA20BA40BA50BA60BD6
:1003C000A70BA80BA90BAB0BAC0BAD0BAE0BAF0B7C
:1003D000B00BB10BB20BB40BB50BB60BB70BB80B24
:1003E000B90BBA0BBB0BBC0BBE0BBF0BC00BC10BCD
:1003F000C20BC30BC40BC50BC60BC70BC80BCA0B78
:10040000CB0BCC0BCD0BCE0BCF0BD00BD10BD20B20
:10041000D30BD40BD50BD60BD70BD80BD90BDA0BD0
:10042000DB0BDC0BDE0BDF0BE00BE10BE20BE30B7A
:10043000E40BE50BE60BE70BE80BE90BEA0BEB0B28
:10044000EC0BED0BEE0BEF0BF00BF10BF20BF30BD8
:10045000F40BF50BF60BF70BF80BF90BFA0BFB0B88
:10046000FB0BFC0BFD0BFE0BFF0B000C010C020C3D
:10047000030C040C050C060C070C080C090C0A0CE8
:100480000B0C0C0C0D0C0E0C0E0C0F0C100C110C9C
:10049000120C130C140C150C160C170C180C190C50
:1004A0001A0C1A0C1B0C1C0C1D0C1E0C1F0C200C07
:1004B000210C220C230C230C240C250C260C270CBD
:1004C000280C290C2A0C2B0C2B0C2C0C2D0C2E0C74
:1004D0002F0C300C310C320C320C330C340C350C2C
:1004E000360C370C380C380C390C3A0C3B0C3C0CE5
:1004F0003D0C3E0C3E0C3F0C400C410C420C430C9E
:10050000430C440C450C460C470C480C480C490C59
:100510004A0C4B0C4C0C4D0C4D0C4E0C4F0C500C13
:10052000510C520C520C530C540C550C560C560CCE
:10053000570C580C590C5A0C5A0C5B0C5C0C5D0C8B
:100540005E0C5E0C5F0C600C610C620C620C630C48
:10055000640C650C650C660C670C680C690C690C06
:100560006A0C6B0C6C0C6C0C6D0C6E0C6F0C700CC4
:10057000700C710C720C730C730C740C750C760C83
:10058000760C770C780C790C790C7A0C7B0C7C0C43
:100590007C0C7D0C7E0C7F0C7F0C800C810C820C03
:1005A000820C830C840C840C850C860C870C870CC5
:1005B000880C890C8A0C8A0C8B0C8C0C8C0C8D0C86
:1005C0008E0C8F0C8F0C900C910C920C920C930C47
:1005D000940C940C950C960C960C970C980C990C0A
:1005E000990C9A0C9B0C9B0C9C0C9D0C9E0C9E0CCD
:1005F0009F0CA00CA00CA10CA20CA20CA30CA40C90
:10060000A40CA50CA60CA70CA70CA80CA90CA90C53
:10061000AA0CAB0CAB0CAC0CAD0CAD0CAE0CAF0C17
:10062000AF0CB00CB10CB10CB20CB30CB30CB40CDD
:10063000B50CB50CB60CB70CB70CB80CB90CB90CA2
:10064000BA0CBB0CBB0CBC0CBD0CBD0CBE0CBF0C67
:10065000BF0CC00CC10CC10CC20CC20CC30CC40C2E
:10066000C40CC50CC60CC60CC70CC80CC80CC90CF5
:10067000CA0CCA0CCB0CCB0CCC0CCD0CCD0CCE0CBC
:10068000CF0CCF0CD00CD00CD10CD20CD20CD30C84
:10069000D40CD40CD50CD50CD60CD70CD70CD80C4C
:1006A000D90CD90CDA0CDA0CDB0CDC0CDC0CDD0C14
:1006B000DE0CDE0CDF0CDF0CE00CE10CE10CE20CDC
:1006C000E20CE30CE40CE40CE50CE50CE60CE70CA6
:1006D000E70CE80CE80CE90CEA0CEA0CEB0CEB0C70
:1006E000EC0CED0CED0CEE0CEE0CEF0CF00CF00C39
:1006F000F10CF10CF20CF20CF30CF40CF40CF50C04
:10070000F50CF60CF70CF70CF80CF80CF90CF90CCE
:10071000FA0CFB0CFB0CFC0CFC0CFD0CFE0CFE0C98
:10072000FF0CFF0C000D000D010D020D020D030D5D
:10073000030D040D040D050D050D060D070D070D28
:10074000080D080D090D090D0A0D0B0D0B0D0C0DF3
:100750000C0D0D0D0D0D0E0D0E0D0F0D100D100DC0
:10076000110D110D120D120D130D130D140D150D8C
:10077000150D160D160D170D170D180D180D190D59
:10078000190D1A0D1A0D1B0D1C0D1C0D1D0D1D0D27
:100790001E0D1E0D1F0D1F0D200D200D210D210DF5
:1007A000220D230D230D240D240D250D250D260DC1
:1007B000260D270D270D280D280D290D290D2A0D91
:1007C0002A0D2B0D2C0D2C0D2D0D2D0D2E0D2E0D5E
:1007D0002F0D2F0D300D300D310D310D320D320D2D
:1007E000330D330D340D340D350D350D360D360DFD
:1007F000370D370D380D380D390D390D3A0D3A0DCD
:100800003B0D3B0D3C0D3C0D3D0D3D0D3E0D3E0D9C
:100810003F0D3F0D400D400D410D410D420D420D6C
:10082000430D430D440D440D450D450D460D460D3C
:10083000470D470D480D480D490D490D4A0D4A0D0C
:100840004B0D4B0D4C0D4C0D4D0D4D0D4E0D4E0DDC
:100850004F0D4F0D500D500D510D510D520D520DAC
:10086000530D530D540D540D550D550D560D560D7C
:10087000570D570D570D580D580D590D590D5A0D4F
:100880005A0D5B0D5B0D5C0D5C0D5D0D5D0D5E0D20
:100890005E0D5F0D5F0D600D600D600D610D610DF2
:1008A000620D620D630D630D640D640D650D650DC4
:1008B000660D660D670D670D670D680D680D690D96
:1008C000690D6A0D6A0D6B0D6B0D6C0D6C0D6D0D68
:1008D0006D0D6D0D6E0D6E0D6F0D6F0D700D700D3C
:1008E000710D710D720D720D720D730D730D740D0E
:1008F000740D750D750D760D760D770D770D770DE1
:10090000780D780D790D790D7A0D7A0D7B0D7B0DB3
:100910007B0D7C0D7C0D7D0D7D0D7E0D7E0D7F0D87
:100920007F0D7F0D800D800D810D810D820D820D5B
:10093000820D830D830D840D840D850D850D860D2F
:10094000860D860D870D870D880D880D890D890D03
:10095000890D8A0D8A0D8B0D8B0D8C0D8C0D8C0DD8
:100960008D0D8D0D8E0D8E0D8F0D8F0D8F0D900DAC
:10097000900D910D910D920D920D920D930D930D81
:10098000940D940D950D950D950D960D960D970D55
:10099000970D970D980D980D990D990D9A0D9A0D2B
:1009A0009A0D9B0D9B0D9C0D9C0D9C0D9D0D9D0D01
:1009B0009E0D9E0D9F0D9F0D9F0DA00DA00DA10DD5
:1009C000A10DA10DA20DA20DA30DA30DA40DA40DAB
:1009D000A40DA50DA50DA60DA60DA60DA70DA70D81
:1009E000A80DA80DA80DA90DA90DAA0DAA0DAA0D57
:1009F000AB0DAB0DAC0DAC0DAC0DAD0DAD0DAE0D2D
:100A0000AE0DAE0DAF0DAF0DB00DB00DB00DB10D03
:100A1000B10DB20DB20DB20DB30DB30DB40DB40DD9
:100A2000B40DB50DB50DB60DB60DB60DB70DB70DB0
:100A3000B80DB80DB80DB90DB90DBA0DBA0DBA0D86
:100A4000BB0DBB0DBB0DBC0DBC0DBD0DBD0DBD0D5E
:100A5000BE0DBE0DBF0DBF0DBF0DC00DC00DC10D34
:100A6000C10DC10DC20DC20DC20DC30DC30DC40D0C
:100A7000C40DC40DC50DC50DC60DC60DC60DC70DE3
:100A8000C70DC70DC80DC80DC90DC90DC90DCA0DBB
:100A9000CA0DCA0DCB0DCB0DCC0DCC0DCC0DCD0D93
:100AA000CD0DCD0DCE0DCE0DCF0DCF0DCF0DD00D6B
:100AB000D00DD00DD10DD10DD20DD20DD20DD30D43
:100AC000D30DD30DD40DD40DD50DD50DD50DD60D1B
:100AD000D60DD60DD70DD70DD80DD80DD80DD90DF3
:100AE000D90DD90DDA0DDA0DDA0DDB0DDB0DDC0DCC
:100AF000DC0DDC0DDD0DDD0DDD0DDE0DDE0DDE0DA5
:100B0000DF0DDF0DE00DE00DE00DE10DE10DE10D7C
:100B1000E20DE20DE20DE30DE30DE40DE40DE40D55
:100B2000E50DE50DE50DE60DE60DE60DE70DE70D2E
:100B3000E70DE80DE80DE90DE90DE90DEA0DEA0D07
:100B4000EA0DEB0DEB0DEB0DEC0DEC0DEC0DED0DE1
:100B5000ED0DEE0DEE0DEE0DEF0DEF0DEF0DF00DB9
:100B6000F00DF00DF10DF10DF10DF20DF20DF20D94
:100B7000F30DF30DF30DF40DF40DF50DF50DF50D6D
:100B8000F60DF60DF60DF70DF70DF70DF80DF80D46
:100B9000F80DF90DF90DF90DFA0DFA0DFA0DFB0D21
:100BA000FB0DFB0DFC0DFC0DFC0DFD0DFD0DFD0DFC
:100BB000FE0DFE0DFE0DFF0DFF0D000E000E000ED2
:100BC000010E010E010E020E020E020E030E030EA6
:100BD000030E040E040E040E050E050E050E060E81
:100BE000060E060E070E070E070E080E080E080E5C
:100BF000090E090E090E0A0E0A0E0A0E0B0E0B0E36
:100C00000B0E0C0E0C0E0C0E0D0E0D0E0D0E0E0E10
:100C10000E0E0E0E0F0E0F0E0F0E100E100E100EEB
:100C2000110E110E110E120E120E120E130E130EC5
:100C3000130E130E140E140E140E150E150E150EA3
:100C4000160E160E160E170E170E170E180E180E7D
:100C5000180E190E190E190E1A0E1A0E1A0E1B0E58
:100C60001B0E1B0E1C0E1C0E1C0E1D0E1D0E1D0E33
:100C70001E0E1E0E1E0E1E0E1F0E1F0E1F0E200E0F
:100C8000200E200E210E210E210E220E220E220EEB
:100C9000230E230E230E240E240E240E240E250EC6
:100CA000250E250E260E260E260E270E270E270EA3
:100CB000280E280E280E290E290E290E2A0E2A0E7D
:100CC0002A0E2A0E2B0E2B0E2B0E2C0E2C0E2C0E5B
:100CD0002D0E2D0E2D0E2E0E2E0E2E0E2E0E2F0E36
:100CE0002F0E2F0E300E300E300E310E310E310E13
:100CF000320E320E320E320E330E330E330E340EEF
:100D0000340E340E350E350E350E360E360E360ECA
:100D1000360E370E370E370E380E380E380E390EA7
:100D2000390E390E390E3A0E3A0E3A0E3B0E3B0E84
:100D30003B0E3C0E3C0E3C0E3C0E3D0E3D0E3D0E61
:100D40003E0E3E0E3E0E3F0E3F0E3F0E3F0E400E3D
:100D5000400E400E410E410E410E420E420E420E1A
:100D6000420E430E430E430E440E440E440E450EF7
:100D7000450E450E450E460E460E460E470E470ED4
:100D8000470E470E480E480E480E490E490E490EB2
:100D90004A0E4A0E4A0E4A0E4B0E4B0E4B0E4C0E8E
:100DA0004C0E4C0E4C0E4D0E4D0E4D0E4E0E4E0E6C
:100DB0004E0E4E0E4F0E4F0E4F0E500E500E500E4A
:100DC000500E510E510E510E520E520E520E520E28
:100DD000530E530E530E540E540E540E550E550E04
:100DE000550E550E560E560E560E560E570E570EE3
:100DF000570E580E580E580E580E590E590E590EC1
:100E00005A0E5A0E5A0E5A0E5B0E5B0E5B0E5C0E9D
:100E10005C0E5C0E5C0E5D0E5D0E5D0E5E0E5E0E7B
:100E20005E0E5E0E5F0E5F0E5F0E600E600E600E59
:100E3000600E610E610E610E610E620E620E620E38
:100E4000630E630E630E630E640E640E640E650E15
:100E5000650E650E650E660E660E660E660E670EF4
:100E6000670E670E680E680E680E680E690E690ED2
:100E7000690E690E6A0E6A0E6A0E6B0E6B0E6B0EB1
:100E80006B0E6C0E6C0E6C0E6C0E6D0E6D0E6D0E90
:100E90006E0E6E0E6E0E6E0E6F0E6F0E6F0E6F0E6E
:100EA000700E700E700E710E710E710E710E720E4C
:100EB000720E720E720E730E730E730E740E740E2B
:100EC000740E740E750E750E750E750E760E760E0A
:100ED000760E760E770E770E770E780E780E780EE9
:100EE000780E790E790E790E790E7A0E7A0E7A0EC8
:100EF0007A0E7B0E7B0E7B0E7C0E7C0E7C0E7C0EA7
:100F00007D0E7D0E7D0E7D0E7E0E7E0E7E0E7E0E85
:100F10007F0E7F0E7F0E7F0E800E800E800E810E64
:100F2000810E810E810E820E820E820E820E830E43
:100F3000830E830E830E840E840E840E840E850E23
:100F4000850E850E850E860E860E860E860E870E03
:100F5000870E870E880E880E880E880E890E890EE1
:100F6000890E890E8A0E8A0E8A0E8A0E8B0E8B0EC1
:100F70008B0E8B0E8C0E8C0E8C0E8C0E8D0E8D0EA1
:100F80008D0E8D0E8E0E8E0E8E0E8E0E8F0E8F0E81
:100F90008F0E8F0E900E900E900E900E910E910E61
:100FA000910E910E920E920E920E920E930E930E41
:100FB000930E930E940E940E940E940E950E950E21
:100FC000950E950E960E960E960E960E970E970E01
:100FD000970E970E980E980E980E980E990E990EE1
:100FE000990E990E9A0E9A0E9A0E9A0E9B0E9B0EC1
:100FF0009B0E9B0E9C0E9C0E9C0E9C0E9D0E9D0EA1
:101000009D0E9D0E9E0E9E0E9E0E9E0E9F0E9F0E80
:101010009F0E9F0EA00EA00EA00EA00EA10EA10E60
:10102000A10EA10EA20EA20EA20EA20EA30EA30E40
:10103000A30EA30EA40EA40EA40EA40EA50EA50E20
:10104000A50EA50EA60EA60EA60EA60EA60EA70E01
:10105000A70EA70EA70EA80EA80EA80EA80EA90EE2
:10106000A90EA90EA90EAA0EAA0EAA0EAA0EAB0EC2
:10107000AB0EAB0EAB0EAC0EAC0EAC0EAC0EAC0EA3
:10108000AD0EAD0EAD0EAD0EAE0EAE0EAE0EAE0E84
:10109000AF0EAF0EAF0EAF0EB00EB00EB00EB00E64
:1010A000B10EB10EB10EB10EB10EB20EB20EB20E45
:1010B000B20EB30EB30EB30EB30EB40EB40EB40E26
:1010C000B40EB50EB50EB50EB50EB60EB60EB60E06
:1010D000B60EB60EB70EB70EB70EB70EB80EB80EE8
:1010E000B80EB80EB90EB90EB90EB90EB90EBA0EC9
:1010F000BA0EBA0EBA0EBB0EBB0EBB0EBB0EBC0EAA
:10110000BC0EBC0EBC0EBC0EBD0EBD0EBD0EBD0E8B
:10111000BE0EBE0EBE0EBE0EBF0EBF0EBF0EBF0E6B
:10112000BF0EC00EC00EC00EC00EC10EC10EC10E4D
:10113000C10EC20EC20EC20EC20EC20EC30EC30E2E
:10114000C30EC30EC40EC40EC40EC40EC50EC50E0F
:10115000C50EC50EC50EC60EC60EC60EC60EC70EF1
:10116000C70EC70EC70EC70EC80EC80EC80EC80ED3
:10117000C90EC90EC90EC90ECA0ECA0ECA0ECA0EB3
:10118000CA0ECB0ECB0ECB0ECB0ECC0ECC0ECC0E95
:10119000CC0ECC0ECD0ECD0ECD0ECD0ECE0ECE0E77
:1011A000CE0ECE0ECE0ECF0ECF0ECF0ECF0ED00E59
:1011B000D00ED00ED00ED00ED10ED10ED10ED10E3B
:1011C000D20ED20ED20ED20ED20ED30ED30ED30E1C
:1011D000D30ED40ED40ED40ED40ED40ED50ED50EFE
:1011E000D50ED50ED60ED60ED60ED60ED60ED70EE0
:1011F000D70ED70ED70ED80ED80ED80ED80ED80EC2
:10120000D90ED90ED90ED90ED90EDA0EDA0EDA0EA3
:10121000DA0EDB0EDB0EDB0EDB0EDB0EDC0EDC0E85
:10122000DC0EDC0EDD0EDD0EDD0EDD0EDD0EDE0E67
:10123000DE0EDE0EDE0EDE0EDF0EDF0EDF0EDF0E4A
:10124000E00EE00EE00EE00EE00EE10EE10EE10E2B
:10125000E10EE10EE20EE20EE20EE20EE30EE30E0E
:10126000E30EE30EE30EE40EE40EE40EE40EE40EF1
:10127000E50EE50EE50EE50EE60EE60EE60EE60ED2
:10128000E60EE70EE70EE70EE70EE70EE80EE80EB5
:10129000E80EE80EE90EE90EE90EE90EE90EEA0E97
:1012A000EA0EEA0EEA0EEA0EEB0EEB0EEB0EEB0E7A
:1012B000EB0EEC0EEC0EEC0EEC0EED0EED0EED0E5C
:1012C000ED0EED0EEE0EEE0EEE0EEE0EEE0EEF0E3F
:1012D000EF0EEF0EEF0EEF0EF00EF00EF00EF00E22
:1012E000F10EF10EF10EF10EF10EF20EF20EF20E03
:1012F000F20EF20EF30EF30EF30EF30EF30EF40EE7
:10130000F40EF40EF40EF40EF50EF50EF50EF50EC9
:10131000F50EF60EF60EF60EF60EF70EF70EF70EAB
:10132000F70EF70EF80EF80EF80EF80EF80EF90E8E
:10133000F90EF90EF90EF90EFA0EFA0EFA0EFA0E71
:10134000FA0EFB0EFB0EFB0EFB0EFB0EFC0EFC0E54
:10135000FC0EFC0EFC0EFD0EFD0EFD0EFD0EFD0E38
:10136000FE0EFE0EFE0EFE0EFE0EFF0EFF0EFF0E1A
:10137000FF0EFF0E000F000F000F000F000F010FF8
:10138000010F010F010F010F020F020F020F020FD9
:10139000030F030F030F030F030F040F040F040FBA
:1013A000040F040F050F050F050F050F050F060F9E
:1013B000060F060F060F060F060F070F070F070F82
:1013C000070F070F080F080F080F080F080F090F66
:1013D000090F090F090F090F0A0F0A0F0A0F0A0F49
:1013E0000A0F0B0F0B0F0B0F0B0F0B0F0C0F0C0F2C
:1013F0000C0F0C0F0C0F0D0F0D0F0D0F0D0F0D0F10
:101400000E0F0E0F0E0F0E0F0E0F0F0F0F0F0F0FF1
:101410000F0F0F0F100F100F100F100F100F110FD5
:10142000110F110F110F110F120F120F120F120FB8
:10143000120F130F130F130F130F130F130F140F9C
:10144000140F140F140F140F150F150F150F150F80
:10145000150F160F160F160F160F160F170F170F63
:10146000170F170F170F180F180F180F180F180F47
:10147000180F190F190F190F190F190F1A0F1A0F2B
:101480001A0F1A0F1A0F1B0F1B0F1B0F1B0F1B0F0F
:101490001C0F1C0F1C0F1C0F1C0F1D0F1D0F1D0FF1
:1014A0001D0F1D0F1D0F1E0F1E0F1E0F1E0F1E0FD7
:1014B0001F0F1F0F1F0F1F0F1F0F200F200F200FB9
:1014C000200F200F200F210F210F210F210F210F9F
:1014D000220F220F220F220F220F230F230F230F81
:1014E000230F230F240F240F240F240F240F240F66
:1014F000250F250F250F250F250F260F260F260F49
:10150000260F260F260F270F270F270F270F270F2E
:10151000280F280F280F280F280F290F290F290F10
:10152000290F290F290F2A0F2A0F2A0F2A0F2A0FF6
:101530002B0F2B0F2B0F2B0F2B0F2C0F2C0F2C0FD8
:101540002C0F2C0F2C0F2D0F2D0F2D0F2D0F2D0FBE
:101550002E0F2E0F2E0F2E0F2E0F2E0F2F0F2F0FA1
:101560002F0F2F0F2F0F300F300F300F300F300F86
:10157000300F310F310F310F310F310F320F320F6A
:10158000320F320F320F320F330F330F330F330F4F
:10159000330F340F340F340F340F340F340F350F33
:1015A000350F350F350F350F360F360F360F360F17
:1015B000360F360F370F370F370F370F370F380FFC
:1015C000380F380F380F380F380F390F390F390FE0
:1015D000390F390F3A0F3A0F3A0F3A0F3A0F3A0FC5
:1015E0003B0F3B0F3B0F3B0F3B0F3C0F3C0F3C0FA8
:1015F0003C0F3C0F3C0F3D0F3D0F3D0F3D0F3D0F8E
:101600003D0F3E0F3E0F3E0F3E0F3E0F3F0F3F0F71
:101610003F0F3F0F3F0F3F0F400F400F400F400F56
:10162000400F400F410F410F410F410F410F420F3B
:10163000420F420F420F420F420F430F430F430F1F
:10164000430F430F430F440F440F440F440F440F05
:10165000450F450F450F450F450F450F460F460FE8
:10166000460F460F460F460F470F470F470F470FCE
:10167000470F480F480F480F480F480F480F490FB2
:10168000490F490F490F490F490F4A0F4A0F4A0F97
:101690004A0F4A0F4A0F4B0F4B0F4B0F4B0F4B0F7D
:1016A0004C0F4C0F4C0F4C0F4C0F4C0F4D0F4D0F60
:1016B0004D0F4D0F4D0F4D0F4E0F4E0F4E0F4E0F46
:1016C0004E0F4E0F4F0F4F0F4F0F4F0F4F0F4F0F2C
:1016D000500F500F500F500F500F510F510F510F0F
:1016E000510F510F510F520F520F520F520F520FF5
:1016F000520F530F530F530F530F530F530F540FDA
:10170000540F540F540F540F540F550F550F550FBE
:10171000550F550F550F560F560F560F560F560FA4
:10172000560F570F570F570F570F570F570F580F89
:10173000580F580F580F580F590F590F590F590F6D
:10174000590F590F5A0F5A0F5A0F5A0F5A0F5A0F53
:101750005B0F5B0F5B0F5B0F5B0F5B0F5C0F5C0F37
:101760005C0F5C0F5C0F5C0F5D0F5D0F5D0F5D0F1D
:101770005D0F5D0F5E0F5E0F5E0F5E0F5E0F5E0F03
:101780005F0F5F0F5F0F5F0F5F0F5F0F600F600FE7
:10179000600F600F600F600F610F610F610F610FCD
:1017A000610F610F620F620F620F620F620F620FB3
:1017B000630F630F630F630F630F630F640F640F97
:1017C000640F640F640F640F640F650F650F650F7E
:1017D000650F650F650F660F660F660F660F660F64
:1017E000660F670F670F670F670F670F670F680F49
:1017F000680F680F680F680F680F690F690F690F2E
:10180000690F690F690F6A0F6A0F6A0F6A0F6A0F13
:101810006A0F6B0F6B0F6B0F6B0F6B0F6B0F6C0FF8
:101820006C0F6C0F6C0F6C0F6C0F6C0F6D0F6D0FDE
:101830006D0F6D0F6D0F6D0F6E0F6E0F6E0F6E0FC4
:101840006E0F6E0F6F0F6F0F6F0F6F0F6F0F6F0FAA
:10185000700F700F700F700F700F700F710F710F8E
:10186000710F710F710F710F710F720F720F720F75
:10187000720F720F720F730F730F730F730F730F5B
:10188000730F740F740F740F740F740F740F750F40
:10189000750F750F750F750F750F750F760F760F26
:1018A000760F760F760F760F770F770F770F770F0C
:1018B000770F770F780F780F780F780F780F780FF2
:1018C000780F790F790F790F790F790F790F7A0FD8
:1018D0007A0F7A0F7A0F7A0F7A0F7B0F7B0F7B0FBD
:1018E0007B0F7B0F7B0F7B0F7C0F7C0F7C0F7C0FA4
:1018F0007C0F7C0F7D0F7D0F7D0F7D0F7D0F7D0F8A
:101900007E0F7E0F7E0F7E0F7E0F7E0F7E0F7F0F6E
:101910007F0F7F0F7F0F7F0F7F0F800F800F800F54
:10192000800F800F800F800F810F810F810F810F3B
:10193000810F810F820F820F820F820F820F820F21
:10194000820F830F830F830F830F830F830F840F07
:10195000840F840F840F840F840F850F850F850FEC
:10196000850F850F850F850F860F860F860F860FD3
:10197000860F860F870F870F870F870F870F870FB9
:10198000870F880F880F880F880F880F880F880FA0
:10199000890F890F890F890F890F890F8A0F8A0F85
:1019A0008A0F8A0F8A0F8A0F8A0F8B0F8B0F8B0F6C
:1019B0008B0F8B0F8B0F8C0F8C0F8C0F8C0F8C0F52
:1019C0008C0F8C0F8D0F8D0F8D0F8D0F8D0F8D0F39
:1019D0008E0F8E0F8E0F8E0F8E0F8E0F8E0F8F0F1E
:1019E0008F0F8F0F8F0F8F0F8F0F8F0F900F900F05
:1019F000900F900F900F900F910F910F910F910FEB
:101A0000910F910F910F920F920F920F920F920FD1
:101A1000920F920F930F930F930F930F930F930FB8
:101A2000940F940F940F940F940F940F940F950F9D
:101A3000950F950F950F950F950F950F960F960F84
:101A4000960F960F960F960F970F970F970F970F6A
:101A5000970F970F970F980F980F980F980F980F51
:101A6000980F980F990F990F990F990F990F990F38
:101A7000990F9A0F9A0F9A0F9A0F9A0F9A0F9B0F1E
:101A80009B0F9B0F9B0F9B0F9B0F9B0F9C0F9C0F04
:101A90009C0F9C0F9C0F9C0F9C0F9D0F9D0F9D0FEB
:101AA0009D0F9D0F9D0F9D0F9E0F9E0F9E0F9E0FD2
:101AB0009E0F9E0F9E0F9F0F9F0F9F0F9F0F9F0FB9
:101AC0009F0FA00FA00FA00FA00FA00FA00FA00F9F
:101AD000A10FA10FA10FA10FA10FA10FA10FA20F85
:101AE000A20FA20FA20FA20FA20FA20FA30FA30F6C
:101AF000A30FA30FA30FA30FA30FA40FA40FA40F53
:101B0000A40FA40FA40FA40FA50FA50FA50FA50F39
:101B1000A50FA50FA50FA60FA60FA60FA60FA60F20
:101B2000A60FA60FA70FA70FA70FA70FA70FA70F07
:101B3000A70FA80FA80FA80FA80FA80FA80FA80FEE
:101B4000A90FA90FA90FA90FA90FA90FA90FAA0FD4
:101B5000AA0FAA0FAA0FAA0FAA0FAA0FAB0FAB0FBB
:101B6000AB0FAB0FAB0FAB0FAB0FAC0FAC0FAC0FA2
:101B7000AC0FAC0FAC0FAC0FAD0FAD0FAD0FAD0F89
:101B8000AD0FAD0FAD0FAE0FAE0FAE0FAE0FAE0F70
:101B9000AE0FAE0FAF0FAF0FAF0FAF0FAF0FAF0F57
:101BA000AF0FB00FB00FB00FB00FB00FB00FB00F3E
:101BB000B10FB10FB10FB10FB10FB10FB10FB20F24
:101BC000B20FB20FB20FB20FB20FB20FB30FB30F0B
:101BD000B30FB30FB30FB30FB30FB40FB40FB40FF2
:101BE000B40FB40FB40FB40FB50FB50FB50FB50FD9
:101BF000B50FB50FB50FB50FB60FB60FB60FB60FC1
:101C0000B60FB60FB60FB70FB70FB70FB70FB70FA7
:101C1000B70FB70FB80FB80FB80FB80FB80FB80F8E
:101C2000B80FB90FB90FB90FB90FB90FB90FB90F75
:101C3000BA0FBA0FBA0FBA0FBA0FBA0FBA0FBA0F5C
:101C4000BB0FBB0FBB0FBB0FBB0FBB0FBB0FBC0F43
:101C5000BC0FBC0FBC0FBC0FBC0FBC0FBD0FBD0F2A
:101C6000BD0FBD0FBD0FBD0FBD0FBE0FBE0FBE0F11
:101C7000BE0FBE0FBE0FBE0FBE0FBF0FBF0FBF0FF9
:101C8000BF0FBF0FBF0FBF0FC00FC00FC00FC00FE0
:101C9000C00FC00FC00FC10FC10FC10FC10FC10FC7
:101CA000C10FC10FC10FC20FC20FC20FC20FC20FAF
:101CB000C20FC20FC30FC30FC30FC30FC30FC30F96
:101CC000C30FC40FC40FC40FC40FC40FC40FC40F7D
:101CD000C40FC50FC50FC50FC50FC50FC50FC50F65
:101CE000C60FC60FC60FC60FC60FC60FC60FC60F4C
:101CF000C70FC70FC70FC70FC70FC70FC70FC80F33
:101D0000C80FC80FC80FC80FC80FC80FC90FC90F19
:101D1000C90FC90FC90FC90FC90FC90FCA0FCA0F01
:101D2000CA0FCA0FCA0FCA0FCA0FCB0FCB0FCB0FE8
:101D3000CB0FCB0FCB0FCB0FCB0FCC0FCC0FCC0FD0
:101D4000CC0FCC0FCC0FCC0FCD0FCD0FCD0FCD0FB7
:101D5000CD0FCD0FCD0FCD0FCE0FCE0FCE0FCE0F9F
:101D6000CE0FCE0FCE0FCF0FCF0FCF0FCF0FCF0F86
:101D7000CF0FCF0FCF0FD00FD00FD00FD00FD00F6E
:101D8000D00FD00FD10FD10FD10FD10FD10FD10F55
:101D9000D10FD10FD20FD20FD20FD20FD20FD20F3D
:101DA000D20FD20FD30FD30FD30FD30FD30FD30F25
:101DB000D30FD40FD40FD40FD40FD40FD40FD40F0C
:101DC000D40FD50FD50FD50FD50FD50FD50FD50FF4
:101DD000D60FD60FD60FD60FD60FD60FD60FD60FDB
:101DE000D70FD70FD70FD70FD70FD70FD70FD70FC3
:101DF000D80FD80FD80FD80FD80FD80FD80FD90FAA
:101E0000D90FD90FD90FD90FD90FD90FD90FDA0F91
:101E1000DA0FDA0FDA0FDA0FDA0FDA0FDA0FDB0F79
:101E2000DB0FDB0FDB0FDB0FDB0FDB0FDB0FDC0F61
:101E3000DC0FDC0FDC0FDC0FDC0FDC0FDD0FDD0F48
:101E4000DD0FDD0FDD0FDD0FDD0FDD0FDE0FDE0F30
:101E5000DE0FDE0FDE0FDE0FDE0FDE0FDF0FDF0F18
:101E6000DF0FDF0FDF0FDF0FDF0FDF0FE00FE00F00
:101E7000E00FE00FE00FE00FE00FE00FE10FE10FE8
:101E8000E10FE10FE10FE10FE10FE20FE20FE20FCF
:101E9000E20FE20FE20FE20FE20FE30FE30FE30FB7
:101EA000E30FE30FE30FE30FE30FE40FE40FE40F9F
:101EB000E40FE40FE40FE40FE40FE50FE50FE50F87
:101EC000E50FE50FE50FE50FE50FE60FE60FE60F6F
:101ED000E60FE60FE60FE60FE60FE70FE70FE70F57
:101EE000E70FE70FE70FE70FE70FE80FE80FE80F3F
:101EF000E80FE80FE80FE80FE80FE90FE90FE90F27
:101F0000E90FE90FE90FE90FE90FEA0FEA0FEA0F0E
:101F1000EA0FEA0FEA0FEA0FEB0FEB0FEB0FEB0FF5
:101F2000EB0FEB0FEB0FEB0FEC0FEC0FEC0FEC0FDD
:101F3000EC0FEC0FEC0FEC0FED0FED0FED0FED0FC5
:101F4000ED0FED0FED0FED0FEE0FEE0FEE0FEE0FAD
:101F5000EE0FEE0FEE0FEE0FEE0FEF0FEF0FEF0F96
:101F6000EF0FEF0FEF0FEF0FEF0FF00FF00FF00F7E
:101F7000F00FF00FF00FF00FF00FF10FF10FF10F66
:101F8000F10FF10FF10FF10FF10FF20FF20FF20F4E
:101F9000F20FF20FF20FF20FF20FF30FF30FF30F36
:101FA000F30FF30FF30FF30FF30FF40FF40FF40F1E
:101FB000F40FF40FF40FF40FF40FF50FF50FF50F06
:101FC000F50FF50FF50FF50FF50FF60FF60FF60FEE
:101FD000F60FF60FF60FF60FF60FF70FF70FF70FD6
:101FE000F70FF70FF70FF70FF70FF70FF80FF80FBF
:101FF000F80FF80FF80FF80FF80FF80FF90FF90FA7
:10200000F90FF90FF90FF90FF90FF90FFA0FFA0F8E
:10201000FA0FFA0FFA0FFA0FFA0FFA0FFB0FFB0F76
:10202000FB0FFB0FFB0FFB0FFB0FFB0FFC0FFC0F5E
:10203000FC0FFC0FFC0FFC0FFC0FFC0FFC0FFD0F47
:10204000FD0FFD0FFD0FFD0FFD0FFD0FFE0FFE0F2E
:10205000FE0FFE0FFE0FFE0FFE0FFF0FFF0FFF0F15
:10206000FF0FFF0FFF0FFF0F11241FBECFEFD8E0B0
:10207000DEBFCDBF11E0A0E0B1E0E6E9FDE702C0C0
:1020800005900D92A430B107D9F721E0A4E0B1E0AA
:1020900001C01D92A534B207E1F70E9441170C94CC
:1020A000C93E0C94000084B1886284B9229A2A9AAD
:1020B000249880E58CBD81E08DBD80E090E00C949B
:1020C0007116681718F0681B862F0895861B0895EF
:1020D000EF92FF920F931F93261737074807590770
:1020E00068F079018A01E61AF70A080B190BC80192
:1020F000B7011F910F91FF90EF900895621B730B32
:10210000840B950B1F910F91FF90EF90089584B170
:10211000886284B9229A2A9A249880E58CBD81E04D
:102120008DBD80E090E00E9471168AB180668AB908
:1021300052985A9854985C9853985B983B98439A55
:102140003C9A57985F9A209A219A3D98459808950D
:10215000823020F0803120F487E0089588E00895EF
:10216000823210F486E00895863310F485E00895F5
:102170008F3410F484E00895823610F483E00895DB
:10218000833710F482E00895803910F00C942717FB
:1021900081E008950F931F938A019B01883009F411
:1021A00047C0873009F455C0863009F467C08530D0
:1021B00059F1843009F473C0833009F47BC0823054
:1021C00009F483C0813089F18F3F79F18E3F09F4A2
:1021D0008EC08D3F09F492C08C3F09F49AC08B3FAA
:1021E00009F4A2C08A3F09F477C0893F09F4A7C067
:1021F000883FD9F4CB01BA0123E09695879577956E
:1022000067952A95D1F70EC0CB01BA01660F771FEB
:10221000881F991F660F771F881F991F600F711FF6
:10222000821F931F1F910F910895C901B801FACF22
:10223000CB01BA01660F771F881F991F660F771FA2
:10224000881F991F660F771F881F991F1F910F9175
:102250000895CB01BA01660F771F881F991F660F7B
:10226000771F881F991F660F771F881F991F601B94
:10227000710B820B930B1F910F910895CB01BA0143
:10228000660F771F881F991F600F711F821F931F92
:10229000660F771F881F991F1F910F910895CB011B
:1022A000BA01660F771F881F991F660F771F881F57
:1022B000991FB8CFCB01BA01660F771F881F991FEE
:1022C000600F711F821F931FADCFCB01BA01660F44
:1022D000771F881F991FA6CFCB01BA0126E030E0F7
:1022E00040E050E00E94C33DCA01B9019BCFCB0141
:1022F000BA01969587957795679594CFCB01BA01EA
:1023000023E030E040E050E00E94C33DCA01B90143
:1023100089CFCB01BA019695879577956795969564
:102320008795779567957ECFCB01BA0125E030E0A0
:1023300040E050E00E94C33DCA01B90173CFCB0118
:10234000BA0127E030E040E050E00E94C33DCA01FE
:10235000B90168CF8F929F92AF92BF92CF92DF92D6
:10236000EF92FF920F931F93E82F6A017B018091F8
:102370000F01882331F04C342DE1520761057105BE
:1023800088F4E11136C060E073E080E090E01F91D6
:102390000F91FF90EF90DF90CF90BF90AF909F9004
:1023A0008F9008958DE88E0F8F3008F476C0452FFA
:1023B000562F672F7727AE2FB0E09A01AB010E940E
:1023C000E53D68392AE372078105910520F468E943
:1023D0007AE380E090E028E9C21A2AE3D20AE10811
:1023E000F108C616D706E806F90688F6C701B60151
:1023F000CECFE13009F44CC0E23009F455C0EA31E7
:1024000008F457C0ED3F08F07BC0E73E08F47EC0FB
:1024100077276F2D5E2D4D2D4601570181E0981ACB
:10242000A108B108AE2FB0E09A01AB010E94E53DD2
:102430008B019C0186169706A806B90610F4950133
:102440008401E095EE9FC0011124002496958795A4
:102450000794969587950794982F802DAA2797FD26
:10246000A095BA2F88169906AA06BB0670F04601F9
:102470005701881A990AAA0ABB0AC501B401801635
:102480009106A206B30608F082CFC901B8017FCF3A
:1024900060E074E080E090E07ACFC701B6019695E5
:1024A00087957795679573CF60E075E080E090E061
:1024B0006ECF55274F2D3E2D2D2DAE2FB0E00E9413
:1024C000E53DEE9F600111242FE0C20ED11C0024D7
:1024D000D694C7940794D694C7940794DC2CC02C48
:1024E000EE24D7FCE094FE2C611525E072078105EF
:1024F000910508F076CF60E075E080E090E071CF64
:10250000C701B60171508109910941CF8DE88E0F45
:102510008F3018F255274F2D3E2D2D2DAE2FB0E0C8
:102520000E94E53D34CFFC01EE0FFF1FE859FF4F3D
:10253000A591B491EFEFFFE0E81BF90BEE0FFF1F41
:10254000E859FF4F259134916430A9F06830C9F003
:102550004FEF5FE0421B530B662381F06130A1F027
:10256000623021F1633051F16530D1F1663009F408
:1025700047C0673099F19C01C90108959A01C901CA
:1025800008959D01C90108959A01369527953695BC
:102590002795AC0155954795959587959595879580
:1025A000480F591F240F351FC90108959A01369508
:1025B000279595958795280F391FE1CF9A01369574
:1025C00027955695479556954795240F351F959510
:1025D000879595958795280F391FD1CF9D01D5CF28
:1025E0009D0136952795B695A795B695A7952A0F7F
:1025F0003B1F9595879595958795280F391FBFCFD8
:102600009D013695279595958795280F391FB7CF4A
:1026100087B1887F87B988B1887F88B9EAE7F0E019
:1026200080E8808380E280937C0080818760808363
:1026300080818064808308951F920F920FB60F925D
:1026400011242F938F939F93AF93BF934A9B20C0E6
:102650008091350190913601A0913701B0913801F8
:1026600026B5BA2FA92F982F8827822B80931E0179
:1026700090931F01A0932001B09321011092350186
:102680001092360110923701109238011092170102
:10269000BF91AF919F918F912F910F900FBE0F908F
:1026A0001F9018951F920F920FB60F9211248F93BF
:1026B0009F93AF93BF934B990BC010921801BF919A
:1026C000AF919F918F910F900FBE0F901F90189513
:1026D00081E090E0A0E0B0E080931A0190931B01AC
:1026E000A0931C01B0931D018093030180931901F5
:1026F00080931801E4CF85E08093690083E08DBB6F
:1027000010926D0010926C0008951C9903C01092F5
:102710000E01089581E080930E010895882329F029
:1027200080911601882359F0089580911501811137
:10273000FBCF5D9881E0809315010C943A165E986A
:1027400081E0809316010C942F16882399F08091D4
:10275000110181110CC08091250190912601A09159
:102760002701B09128010A97A105B105B0F4109294
:10277000160108958091100181110CC080913101E2
:1027800090913201A0913301B09134010A97A105D3
:10279000B10548F41092150108955E9A0E942F1613
:1027A0001092160108955D9A0E943A16F3CF809117
:1027B00012018111089580910E01882351F08091BA
:1027C00016018111F7CF5E9881E0809316010C9479
:1027D0002F16809115018111EDCF5D9881E08093D6
:1027E00015010C943A16809112018111089580917F
:1027F0000E018823B1F08091110181110FC08091E9
:10280000250190912601A0912701B09128010A97F6
:10281000A105B10518F05E9A0E942F1610921601BC
:1028200008958091100181110CC080913101909127
:102830003201A0913301B09134010A97A105B1058D
:1028400018F41092150108955D9A0E943A16F9CF76
:10285000809114018111089580910E0181110AC0A7
:10286000809116018111F7CF5E9881E08093160167
:102870000C942F16809115018111EDCF5D9881E0A8
:10288000809315010C943A168091140181110895DA
:1028900080910E01811116C08091110181110FC02C
:1028A0008091250190912601A0912701B0912801E6
:1028B0000A97A105B10518F05E9A0E942F16109292
:1028C000160108958091100181110CC08091310191
:1028D00090913201A0913301B09134010A97A10582
:1028E000B10518F41092150108955D9A0E943A16E8
:1028F000F9CF80911201811101C0089580910E01DC
:10290000882351F0809116018111F7CF5E9881E004
:10291000809316010C942F16809115018111EDCF33
:102920005D9881E0809315010C943A168091120114
:10293000811101C0089580910E018823B1F080912A
:10294000110181110FC08091250190912601A09164
:102950002701B09128010A97A105B10518F05E9AE8
:102960000E942F1610921601089580911001811176
:102970000CC08091310190913201A0913301B0914E
:1029800034010A97A105B10518F4109215010895B4
:102990005D9A0E943A16F9CF80911401811101C00D
:1029A000089580910E0181110AC080911601811154
:1029B000F7CF5E9881E0809316010C942F168091DA
:1029C00015018111EDCF5D9881E0809315010C9484
:1029D0003A1680911401811101C0089580910E0171
:1029E000811116C08091110181110FC080912501C4
:1029F00090912601A0912701B09128010A97A10585
:102A0000B10518F05E9A0E942F16109216010895D3
:102A10008091100181110CC080913101909132019F
:102A2000A0913301B09134010A97A105B10518F4C2
:102A30001092150108955D9A0E943A16F9CF1F92DF
:102A40000F920FB60F9211248F939F93AF93BF9362
:102A50008091290190912A01A0912B01B0912C0124
:102A60000196A11DB11D8093290190932A01A09385
:102A70002B01B0932C0180912D0190912E01A091FA
:102A80002F01B09130010196A11DB11D80932D0140
:102A900090932E01A0932F01B093300180913501C6
:102AA00090913601A0913701B09138010196A11D96
:102AB000B11D8093350190933601A0933701B093F7
:102AC00038018091390190913A01A0913B01B09178
:102AD0003C010196A11DB11D8093390190933A01EB
:102AE000A0933B01B0933C01809125019091260178
:102AF000A0912701B09128010196A11DB11D8093DD
:102B0000250190932601A0932701B093280180917D
:102B1000310190913201A0913301B09134010196BD
:102B2000A11DB11D8093310190933201A093330117
:102B3000B093340116BC809104018F5F809304012F
:102B4000BF91AF919F918F910F900FBE0F901F90EB
:102B50001895F8948091290190912A01A0912B0158
:102B6000B0912C0126B578946627782F892F9A2F5B
:102B7000622B0895F89480912D0190912E01A091DF
:102B80002F01B091300126B578946627782F892FD0
:102B90009A2F622B0895F894809135019091360117
:102BA000A0913701B091380126B578946627782F27
:102BB000892F9A2F622B0895F89480913901909172
:102BC0003A01A0913B01B0913C0126B5789466276B
:102BD000782F892F9A2F622B0895F8946091250100
:102BE0007091260180912701909128017894089591
:102BF000F89460913101709132018091330190918C
:102C0000340178940895F8941092290110922A01C1
:102C100010922B0110922C0178940895F894109240
:102C20002D0110922E0110922F01109230017894F4
:102C30000895F894109235011092360110923701E0
:102C40001092380178940895F894109239011092F6
:102C50003A0110923B0110923C0178940895F89447
:102C6000109225011092260110922701109228013E
:102C700078940895F89410923101109232011092D4
:102C80003301109234017894089583E084BD82E08A
:102C900085BD16BCEEE6F0E08081816080831092F5
:102CA000390110923A0110923B0110923C011092AE
:102CB00035011092360110923701109238011092AE
:102CC000290110922A0110922B0110922C011092CE
:102CD0002D0110922E0110922F0110923001789444
:102CE00008952A989F7090679EBD0DB407FEFDCF92
:102CF0008EBD0DB407FEFDCF2A9A08959093C500AE
:102D00008093C4001092C00080E98093C10086E0E7
:102D10008093C2005198509808959091C00095FFFB
:102D2000FCCF8093C6000895E1ECF0E080818860DC
:102D30008083519A08958091C00086FFFCCF8091D6
:102D4000C100877F8093C1005198599808951F92C0
:102D50000F920FB60F9211242F933F938F939F934F
:102D6000EF93FF933091C6009091C000E091230152
:102D700081E08E0F893008F080E02091240128172F
:102D800049F0292F2C7189F4F0E0E35CFE4F308389
:102D900080932301FF91EF919F918F913F912F910C
:102DA0000F900FBE0F901F90189590932201F2CFB5
:102DB000E091240120912301E21799F0F0E0E35C17
:102DC000FE4F2081FC012083809124018F5F893098
:102DD00020F01092240181E008958093240181E085
:102DE000089580E00895DF92EF92FF920F931F9372
:102DF0002F933F934F935F93112722273327442725
:102E000000E8FF24EE24DD2450E2DD0CEE1CFF1C64
:102E1000001F111F221F331F441F161727073807D3
:102E2000490728F0161B270B380B490BD3945A95EA
:102E300061F7902F8F2D7E2D6D2D5F914F913F91DA
:102E40002F911F910F91FF90EF90DF900895813A9D
:102E500060F0843B60F0893C60F08D3D60F0833F22
:102E600060F08E3F60F489EF08958EEF08958DEF46
:102E700008958CEF08958BEF08958AEF089588EFF9
:102E80000895CF93DF93CDB7DEB7CE56D1090FB6F5
:102E9000F894DEBF0FBECDBF19821C9902C00C94FE
:102EA000703D81E080930E010E9445160E948710BC
:102EB0000E94081385E08093690083E08DBB109227
:102EC0006D0010926C0080E490E00E947E1680916C
:102ED0001201882311F40C94743D8091140188230D
:102EE00011F40C945F3D2898339902C0359B08C0BB
:102EF000339902C00C945C3D359902C00C945C3D42
:102F000044988FE19EE40197F1F700C0000080E152
:102F100090E00E94B33E89838A3A11F40C94573DA5
:102F20001092140181E190E00E94B33E89838A3AB5
:102F300011F40C94523D1092130183E190E00E9431
:102F4000B33E89838A3A11F40C944D3D8F3F11F4BE
:102F50000C94243D1092120185E190E00E94B33E52
:102F600089838A3A11F40C941F3D1092110186E175
:102F700090E00E94B33E89838A3A11F40C94383D64
:102F80001092100182E190E00E94B33E89838A3A58
:102F900011F40C941A3D10920F0184E190E00E940C
:102FA000B33E89838A3A11F40C940E3D81E08093FC
:102FB0000101AFE1BEE41197F1F700C0000081E02C
:102FC00080930301A2961FAEA297A3961FAEA3976C
:102FD0002B961FAE2B9718AE18A619A61AA61BA6DD
:102FE000312C812C912C6A961FAE6A9719AE1DAABE
:102FF0001AAE6D961FAE6D97A5961FAEA597A196BA
:103000001CAE1DAE1EAE1FAEA197A9961CAE1DAE86
:103010001EAE1FAEA9972F961FAE2F971EAA6C96B5
:103020001FAE6C9767961CAE1DAE1EAE1FAE6797A7
:1030300025961CAE1DAE1EAE1FAE259721961CAE6A
:103040001DAE1EAE1FAE219762961FAE1EAE6297DA
:103050001F8E2A961CAE1DAE1EAE1FAE2A971CAE4A
:10306000212C1C861B861FA2B4E02D96BFAF2D9786
:10307000F4E02E96FFAF2E9704E06B960FAF6B97A0
:1030800014E060961FAF609724E063962FAF6397BC
:1030900031E068963FAF689741E04A875FE7A496C2
:1030A0005FAFA4978FE78CA71DA61EA61FA618AA20
:1030B0001B8A1C8A1D8A1E8A1F8A188E198E1A8ED8
:1030C0001B8E1C8E1D8E1E8E91E069969FAF699798
:1030D00019AA1AAA1BAA1CAA1A821B821C821D8268
:1030E0001FAA1BAE2C961FAE2C97B12C2696BFAEF6
:1030F0002697AF969FAE8EAEAF974F9B02C00C94B3
:10310000CF210E94BA156B017C018CAC81100C940C
:10311000322481E0809317012A968CAC9DACAEAC32
:10312000BFAC2A9781149104A104B10411F40C944A
:10313000C225C814D904EA04FB0410F00C94BB297E
:10314000B501A4014C195D096E097F092A968CAD61
:103150009DADAEADBFAD2A97B695A79597958795CE
:10316000481759076A077B0710F00C94C225F6949C
:10317000E794D794C794C80ED91EEA1EFB1E0E947E
:103180000E160E940316B701A6018A850E94CA1076
:103190002B013C0180910F01882311F40C94CA2566
:1031A0000CE440160DE150066104710410F40C9417
:1031B000CA258CA583578F3010F40C94232E7727C3
:1031C000672D562D452D9CA4A92DB0E09A01AB0189
:1031D0000E94E53D68390AE370078105910520F4F6
:1031E00068E97AE380E090E09301820108591A438C
:1031F000210931096B8B7C8B8D8B9E8B06171707F2
:103200002807390720F40B8B1C8B2D8B3E8B8B886A
:103210009C88AD88BE8805E0B694A794979487945F
:103220000A95D1F78B899C89AD89BE89A30192014A
:10323000281B390B4A0B5B0B2F8B388F498F5A8F0A
:10324000CA01B901F5E09695879577956795FA9546
:10325000D1F70E94F31621966CAF7DAF8EAF9FAF72
:103260002197C501B4010E94F31625966CAF7DAF7E
:103270008EAF9FAF2597CDA6DEA6EFA6F8AACB8E80
:10328000DC8EED8EFE8E9AE09EABA1E0ACAF212CE1
:1032900000E911E01C870B874C9B2BC68BAC81107F
:1032A0000C948625109203018F88988CA98CBA8C77
:1032B00001E0801600E19006A104B10410F011E0D5
:1032C0001AAF0E94DC1569AB7AAB8BAB9CAB6A96EC
:1032D0001FAE6A9721E02BAF31E02C963FAF2C97C1
:1032E00080911A0190911B01A0911C01B0911D01C8
:1032F000892B8A2B8B2B41F110921A0110921B0102
:1033000010921C0110921D01339904C0359902C01E
:103310000C948022339B04C0359B02C00C94802205
:103320008F8C882011F40C9480222D969FAC2D97C1
:1033300060969FAE60972E968FAC2E9763968FAE59
:1033400063972F961FAE2F973399CCC53599CAC571
:1033500044988FA881100C9493258B8C9C8CAD8CF9
:10336000BE8C89288A288B2809F42AC180911701EC
:10337000882311F40C94A82A0E94A9156B017C01E2
:103380004B8D5C8D6D8D7E8D8A850E94CA102B01C0
:103390003C0180910F01882311F40C9471280CE4F6
:1033A00040160DE150066104710410F40C9471286C
:1033B0008CA583578F3010F40C9447327727672DF4
:1033C000562D452D9CA4A92DB0E09A01AB010E9479
:1033D000E53D68390AE370078105910520F468E945
:1033E0007AE380E090E09301820108591A432109B1
:1033F00031096B8B7C8B8D8B9E8B061717072807EB
:10340000390720F40B8B1C8B2D8B3E8B8B889C8873
:10341000AD88BE8815E0B694A794979487941A95C2
:10342000D1F78B899C89AD89BE89A3019201281BA4
:10343000390B4A0B5B0B2F8B388F498F5A8FCA0180
:10344000B901E5E09695879577956795EA95D1F767
:103450000E94F31621966CAF7DAF8EAF9FAF219780
:10346000C501B4010E94F31625966CAF7DAF8EAFF7
:103470009FAF25978F8C81100C94A02A8091030117
:10348000882311F40C944D2C0A85023014F40C940A
:10349000A4334C145D046E047F04A8F08B8D9C8DC6
:1034A000AD8DBE8DAF968EAC9FACAF97C80ED91EBA
:1034B000EA1EFB1E4C145D046E047F04B8F7AF9641
:1034C0009FAE8EAEAF978B8C9C8CAD8CBE8CC8188B
:1034D000D908EA08FB088F88988CA98CBA8CC70198
:1034E000B6018C149D04AE04BF0410F40C94433157
:1034F00020E030E140E050E00E94F83D65015401D9
:1035000045015601C12CD12C76018A829B82AC8266
:10351000BD82CE82DF82E886F9865401CC80DD80D0
:10352000E12CF12C00E010E00E94253EC901DA01F7
:103530007C01DD24CC246796CCAEDDAEEEAEFFAED2
:10354000679762968EAC9FAC6297811408E09006F4
:1035500014F40C947E348091120181110C9477380C
:1035600080910E01882311F40C94AD3880911101E3
:1035700081110FC08091250190912601A091270112
:10358000B09128010A97A105B10518F05E9A0E9432
:103590002F161092160180911401882311F40C94B7
:1035A000A6348A848DAA2E969FAC2E9763969FAEE2
:1035B000639701E00F8F11E01FAB26960FAF2697A0
:1035C0000E94DC1589A89AA8ABA8BCA84814590485
:1035D0006A047B0420F419AA1AAA1BAA1CAA209127
:1035E0000301211122C0339986C7359984C789A860
:1035F0009AA8ABA8BCA8681579058A059B05A8F010
:1036000069969FAC699791100C949A2A6A968FAC30
:103610006A97882051F09BAC911007C06A961FAE44
:103620006A9711E02C961FAF2C9789AC8110D7C6F2
:10363000411451046104710411F00C948A2419AEF0
:1036400029988DA49EA4AFA4B8A881149104A104C4
:10365000B10409F06CC780911E0190911F01A091E7
:103660002001B0912101892B8A2B8B2B09F091C766
:103670008B8C9C8CAD8CBE8C89288A288B2811F071
:103680000C9437280B851C850F5F1F4F1C870B87F9
:103690004A825B826C827D82CE0101960E94D8169E
:1036A000882351F1898187FF02C00C94472838ADE7
:1036B000313011F40C944F2810F40C944728323018
:1036C00029F4A2968FAFA29753E058AF80910E01D4
:1036D000982F906F2B968FAC2B97891611F40C9422
:1036E000A827982F946F891611F40C94BB2798ADD6
:1036F000933011F40C9424278B849C8401E9801668
:1037000001E0900609F043C21FA11F5F1FA3133001
:1037100010F00C948225812F806280937C00809130
:103720007A00806480937A00AF968EAC9FACAF979E
:1037300080917A0084FFFCCFAF969FAE8EAEAF979C
:1037400080917A00806180937A00009179002FA1A6
:10375000213011F40C941C2821110C94A72680E030
:10376000023010F40C94E52B063010F40C94CB29A5
:10377000093110F40C94F82C093210F40C94C62F73
:103780000B3310F40C944D33003510F40C94583670
:103790000B3510F40C943039073710F40C94E539DC
:1037A0000B3810F40C94603A0D3910F40C94563A1E
:1037B0000B3A10F40C94F33C0E3B10F40C94873C41
:1037C000013D10F40C947D3C053E10F40C94913CAA
:1037D000013F10F40C94AA3B0F3F11F40C94053DEB
:1037E00002E02D960FAF2D9718E02E961FAF2E9763
:1037F0009EA8992019F0092D0F5F0EAB882309F4BC
:10380000B2C08F8C882041F080910301882321F081
:1038100001E02F960FAF2F976C968FAC6C97882096
:10382000E9F08DA987FF02C00C94202E68969FAC0A
:1038300068979DAA89150CF48DAB4B8D5C8D6D8DB1
:103840007E8D68968FAD68970E94CA106A837B83CD
:103850008C839D8368968FAC68978A8680910F01D0
:10386000882311F40C9411268A809B80AC80BD8043
:103870000CE480160DE19006A104B10410F40C9440
:1038800011268CA583578A809B80AC80BD808F30A9
:1038900010F40C94DC2E77276B2D5A2D492D9CA407
:1038A000A92DB0E09A01AB010E94E53D68390AE319
:1038B00070078105910520F468E97AE380E090E0E3
:1038C000CA80DB80EC80FD8018E9C11A1AE3D10AB6
:1038D000E108F1086B8B7C8B8D8B9E8BC616D7060F
:1038E000E806F90620F4CB8ADC8AED8AFE8ACB88CA
:1038F000DC88ED88FE8855E0F694E794D794C79469
:103900005A95D1F70B891C892D893E898A809B8025
:10391000AC80BD80801A910AA20AB30A8F8A988E61
:10392000A98EBA8EC501B40115E096958795779555
:1039300067951A95D1F70E94F31621966CAF7DAF6B
:103940008EAF9FAF2197C701B6010E94F31625964F
:103950006CAF7DAF8EAF9FAF259711E01EAB21E01E
:1039600069962FAF69978A809B80AC80BD8089283B
:103970008A288B2809F450C580910301882309F413
:103980004BC50EA90A3008F447C58091170188235A
:1039900011F40C943B2D0E94A9156B017C011A8532
:1039A000123014F40C94442D9F8C91100C94F32E2F
:1039B0008A809B80AC80BD808C149D04AE04BF04C3
:1039C000B8F0D501C4014B8D5C8D6D8D7E8DAF96A9
:1039D0008EAC9FACAF97C40ED51EE61EF71E8C159D
:1039E0009D05AE05BF05B8F7AF969FAE8EAEAF97FB
:1039F0008B8C9C8CAD8CBE8CC818D908EA08FB084F
:103A00009A849DAAF894BB27AF2D9E2D8D2D80936F
:103A1000390190933A01A0933B01B0933C01789413
:103A20008F8C882009F4F1C400E8D00EE11CF11C51
:103A30008A809B80AC80BD808C149D04AE04BF0442
:103A400020F4C818D908EA08FB088F88988CA98C3C
:103A5000BA8C8C149D04AE04BF0410F40C949B30FB
:103A6000560167019501A60160E070E080E090E0FA
:103A70000CE00E94823EAF88B88CC98CDA8C45017C
:103A80005601C12CD12C76018B869C86AD86BE86D4
:103A9000CF86D88AE98AFA8A5401CD84DE84E12C63
:103AA000F12C00E010E00E94253EC901A901662723
:103AB00057FD6095762F5A0199248824A9968CAEDB
:103AC0009DAEAEAEBFAEA9972E966FAD2E970E945B
:103AD000931201E0A5960FAFA59762968EAC9FACAE
:103AE0006297A401662757FD6095762F6A01BB2473
:103AF000AA246796ACAEBDAECEAEDFAE6797881691
:103B0000990614F00C947E30881999094C01AA2466
:103B100097FCA094BA2C89E0880C991CAA1CBB1CA9
:103B20008A95D1F7A1968CAE9DAEAEAEBFAEA197F1
:103B30002A85223014F40C946B3BA5960FADA59703
:103B4000013011F40C944835033011F40C94F43620
:103B500011E06A961FAF6A9721E02AAF30E86D96B0
:103B60003FAF6D9742E0A5964FAFA5972F961FAE3A
:103B70002F971EAA6C961FAE6C971C861B8654E06E
:103B80006B965FAF6B9704E026960FAF26978091F8
:103B90001101811148C480911001811154C48B8C92
:103BA0009C8CAD8CBE8C89288A288B2841F08A8019
:103BB0009B80AC80BD8089288A288B2811F41AAE9E
:103BC0001F8E80910401882309F4C8C070900401FD
:103BD000109204012C969FAC2C97992009F460C791
:103BE00062960EAD1FAD6297003111050CF0D0C684
:103BF0001AAE80911401882311F40C94302A80911C
:103C00001201882311F40C940A2A67961CAE1DAE8B
:103C10001EAE1FAE679711E026961FAF2697109233
:103C200019012D968FAC2D9760968FAE60972E96CA
:103C30009FAC2E9763969FAE639726960FAD2697FF
:103C4000023011F40C94B82B10F40C9485282696AD
:103C50001FAD2697133011F40C94D32A143011F0B1
:103C60000C94CF2AA72DB0E0A1962CAD3DAD4EAD62
:103C70005FADA1970E94E53D67968CAC9DACAEAC64
:103C8000BFAC6797860E971EA81EB91E67968CAEAE
:103C90009DAEAEAEBFAE6797B7FE02C00C942E2DA0
:103CA000232B242B252B11F40C942E2D6796ACACD2
:103CB000BDACCEACDFAC679701E0A016B1040FEF4E
:103CC000C0060FE0D00614F40C9424336D967FAE3A
:103CD0006D97812C912CAA24AA944FE0B42E67965C
:103CE0008CAE9DAEAEAEBFAE6797EE24EA945FE0B9
:103CF000F52EA1968CAC9DACAEACBFACA1978091DB
:103D00001201181419041A041B0414F00C94BE3187
:103D1000882311F40C94173280911401882311F434
:103D20000C9436326D969FAC6D9797186D969FAE3A
:103D30006D97191414F00C94A9316B966FAD6B97B5
:103D4000C7010E94931262969FAF8EAF62970E9446
:103D5000711611E01F8F2C961FAE2C974F997CC5C2
:103D600028A539A54AA55BA52F5F3F4F4F4F5F4F51
:103D700028A739A74AA75BA7213D3B4F41405105E2
:103D800008F4BBC900E0AF968EAC9FACAF975E98CD
:103D90005D984498299A80E098E00E9471169FEF00
:103DA000A1EEB4E09150A040B040E1F700C00000A7
:103DB000043011F40C94943B5E9A5D9A449A2998CD
:103DC00080E090E00E9471163FEF41EE54E03150E8
:103DD00040405040E1F700C000000F5F0530B9F6E9
:103DE0004F9BFECFAF969FAE8EAEAF978FEF90E713
:103DF000A2E081509040A040E1F700C00000B6B0C2
:103E0000B3FABB24B0F881E0B82680910E01882374
:103E100009F47EC55D9880911401882309F476C564
:103E2000449811E000E0C12CD12C7601AA24A3947F
:103E3000AF968EAC9FACAF97222D932D39C086B133
:103E400083FB882780F98A258983B81651F1BFEF53
:103E5000F0E712E0B150F0401040E1F700C0000080
:103E6000B980023009F429C308F08CC0002309F49A
:103E70000EC3013009F09FC280910E01882309F41E
:103E800067C680911101A02FA81BA0931101A11159
:103E900092C280911201B02FB81BB093120111E0B1
:103EA00090E0C114D10488E0E806F10408F07FC076
:103EB0004F9930C0BFEFCB1ADB0AEB0AFB0A222373
:103EC00081F121E09130D1F0923009F0B8CF5FEF6D
:103ED000851A950A88E988168AE3980608F06EC262
:103EE0004498ADCF339B02C0359932CA449A1FAA79
:103EF00067CB1BAEF5C900E010E021E0FFEF8F1AA1
:103F00009F0A38E8831633E1930608F05FC24498AD
:103F100091E095CF1111CECFC12CD12C760120E0AC
:103F2000D1CFB6B0B3FABB24B0F8BA245E9A5D9A8A
:103F3000299880E090E00E947116111101C00F5F76
:103F4000023009F4C8C608F48AC2043009F4CEC6A7
:103F500008F4D5C6053009F0E3C680910E01882328
:103F600009F4DAC65D9890911001809114018823BC
:103F700009F4CDC691110C94CB2A449800E010E0CE
:103F800021E0A2CF033009F4A1C2043009F013C22A
:103F9000809101015A2D581B5093010111E090E0CE
:103FA000C114D10488E0E806F10408F481CFAF968B
:103FB0009FAE8EAEAF97222E392E5E985D984498B4
:103FC000299A80E098E00E9471169FEFA0E7B2E086
:103FD0009150A040B040E1F700C000008091140172
:103FE000882309F462C48AEA89836AEAAF968EACB0
:103FF0009FACAF97F999FECFAF969FAE8EAEAF97BD
:1040000080E190E00E94BB3EAF968EAC9FACAF9734
:10401000F999FECFAF969FAE8EAEAF975E9A5D9A3E
:10402000449A299880E090E00E947116FFEF00E723
:1040300012E0F15000401040E1F700C000005E982F
:104040005D984498299A80E098E00E9471162FEFBD
:1040500030E742E0215030404040E1F700C000002E
:1040600080911301882309F44AC48AEA89836AEAA1
:10407000AF968EAC9FACAF97F999FECFAF969FAE3F
:104080008EAEAF9781E190E00E94BB3EAF968EACC2
:104090009FACAF97F999FECFAF969FAE8EAEAF971C
:1040A0005E9A5D9A449A299880E090E00E94711689
:1040B0005FEF80E792E0515080409040E1F700C010
:1040C00000005E985D984498299A80E098E00E94EC
:1040D0007116AFEFB0E7F2E0A150B040F040E1F769
:1040E00000C0000080911201882309F401C48AEA0B
:1040F00089836AEAAF968EAC9FACAF97F999FECFF1
:10410000AF969FAE8EAEAF9783E190E00E94BB3E2C
:10411000AF968EAC9FACAF97F999FECFAF969FAE9E
:104120008EAEAF975E9A5D9A449A299880E090E0AF
:104130000E9471160FEF10E722E00150104020405E
:10414000E1F700C000005E985D984498299A80E0ED
:1041500098E00E9471163FEF40E752E03150404036
:104160005040E1F700C0000080910F01882309F45E
:10417000B8C38AEA89836AEAAF968EAC9FACAF97E0
:10418000F999FECFAF969FAE8EAEAF9782E190E0E9
:104190000E94BB3EAF968EAC9FACAF97F999FECF15
:1041A000AF969FAE8EAEAF975E9A5D9A449A29986D
:1041B00080E090E00E9471168FEF90E7A2E08150BE
:1041C0009040A040E1F700C000005E985D984498E0
:1041D000299A80E098E00E947116BFEFF0E702E0B4
:1041E000B150F0400040E1F700C0000080911101A3
:1041F000882309F46FC38AEA89836AEAAF968EAC92
:104200009FACAF97F999FECFAF969FAE8EAEAF97AA
:1042100085E190E00E94BB3EAF968EAC9FACAF971D
:10422000F999FECFAF969FAE8EAEAF975E9A5D9A2C
:10423000449A299880E090E00E9471161FEF20E7D1
:1042400032E0115020403040E1F700C000005E989D
:104250005D984498299A80E098E00E9471164FEF8B
:1042600050E782E0415050408040E1F700C000003C
:1042700080911001882309F426C38AEA89836AEAB7
:10428000AF968EAC9FACAF97F999FECFAF969FAE2D
:104290008EAEAF9786E190E00E94BB3EAF968EACAB
:1042A0009FACAF97F999FECFAF969FAE8EAEAF970A
:1042B0005E9A5D9A449A299880E090E00E94711677
:1042C0009FEFA0E7B2E09150A040B040E1F700C0FE
:1042D00000005E985D984498299A80E098E00E94DA
:1042E0007116FFEF00E712E0F15000401040E1F7D7
:1042F00000C00000809101018111DEC28AEA898339
:104300006AEAAF968EAC9FACAF97F999FECFAF96A5
:104310009FAE8EAEAF9784E190E00E94BB3EAF9619
:104320008EAC9FACAF97F999FECFAF969FAE8EAE95
:10433000AF978091140190910E01882309F444C530
:1043400080911201882309F41DC5992309F449C5F8
:104350008091110181110FC080912501909126015A
:10436000A0912701B09128010A97A105B10518F085
:104370005E9A0E942F1610921601809114018111ED
:1043800049C53399ACC03599AAC0449818A619A656
:104390001AA61BA61FAA4F9902C00C9481182110BF
:1043A000B9C329984A805B806C807D801CAE222432
:1043B00023940C944C1911E090E073CDA8EA8A166E
:1043C000A1E69A0608F0ACC0449A39CD40E58416BF
:1043D00043EC940608F0A7C0449A91E030CD7301F5
:1043E0006201F694E794D794C7946C157D058E0509
:1043F0009F0508F084C3411451046104710411F055
:104400000C94482A01E009AF1BC92F961FAE2F97C5
:104410001EAA6C961FAE6C971C861B86809111019C
:10442000882309F4B8CB0E94ED1566327105810529
:10443000910508F4B0CB0E942F165E9A809110016E
:10444000882309F4ACCB0E94F8156632710581050A
:10445000910508F4A4CB0E943A165D9AA0CB0023E4
:1044600009F47BCD013009F05BC480910E018823F3
:1044700009F422C65E98909111018091120188235F
:1044800009F414C691110C943C2E449878CD809177
:104490000E01882309F44BC3809110013A2D381B7B
:1044A00030931001311187CF809114014A2D481BA0
:1044B0004093140111E090E0F4CC80910F013A2D6B
:1044C000381B30930F0111E090E0EBCC8091130189
:1044D0004A2D481B4093130111E090E0E2CC339B3E
:1044E00002C0359952CF449A18A619A61AA61BA63F
:1044F0001FAA0C947D18339B98C8359B96C877C823
:104500008F88988CA98CBA8C01E0801600E1900607
:10451000A104B10408F006C48A848DAA0C949519EC
:10452000812C912C8CCC812C912C91E088CC0E94F8
:10453000A91575016401F694E794D794C7946C1596
:104540007D058E059F0528F02091140121110C9402
:10455000002C8DA49EA4AFA4B8A8681579058A057F
:104560009B0508F478C80E940316809117018823E0
:1045700011F40C94352C0A85023014F40C94D535C2
:1045800001E08091140181110C943C2C002309F46A
:1045900062C880911E0190911F01A0912001B091ED
:1045A0002101892B8A2B8B2B71F04A9B0CC08090A8
:1045B0001E0190901F01A0902001B09021018B8ED0
:1045C0009C8EAD8EBE8E80911701811106C02A96F9
:1045D0001CAE1DAE1EAE1FAE2A9710921E01109289
:1045E0001F0110922001109221010A8502300CF463
:1045F000C0C24B8D5C8D6D8D7E8D8A850E94CA10E8
:104600006A837B838C839D8341145104610471040C
:1046100009F001C1EB84FC842FEFE21AF20A8091C9
:104620000F01882309F4E3C08A809B80AC80BD80A1
:104630000CE480160DE19006A104B10408F4D7C083
:104640008CA583578A809B80AC80BD808F3008F416
:10465000E8C577276B2D5A2D492D9CA4A92DB0E0D4
:104660009A01AB010E94E53D68390AE370078105B4
:10467000910520F468E97AE380E090E04A805B806D
:104680006C807D8018E9411A1AE3510A61087108AB
:104690006B8B7C8B8D8B9E8B461657066806790636
:1046A00020F44B8A5C8A6D8A7E8A4B885C886D8890
:1046B0007E8825E076946794579447942A95D1F79D
:1046C0000B891C892D893E898A809B80AC80BD80A6
:1046D000801A910AA20AB30A8F8A988EA98EBA8E7E
:1046E000C501B401F5E09695879577956795FA959C
:1046F000D1F70E94F31621966CAF7DAF8EAF9FAFBE
:104700002197C301B2010E94F31625966CAF7DAFCD
:104710008EAF9FAF2597339902C0359B58C0339B0E
:1047200002C0359954C080911801811150C0809108
:10473000190181114CC08F8C882009F454C01A854E
:1047400012300CF43BC22F969FAC2F97911003C0F0
:104750000DA90F5F0DAB8A849DA898140CF443C07B
:1047600080910301882339F12F968FAC2F97811008
:1047700022C0339902C0359B0CC0339B02C03599CF
:1047800008C080911901811104C08091180188230B
:1047900091F062960EAD1FAD62970134110514F4CD
:1047A0000C94E42D8AAC81100C943D31198201E007
:1047B0002C960FAF2C97109219010E942416299A5B
:1047C000FC86EB8631E039AF1DAA0C944C1B0A85A0
:1047D00002300CF4F3C18F8C8110B5CF8A849DA870
:1047E00098140CF0BDCFFC86EB860C944C1B8CA46B
:1047F00081103AC288E1482E512C612C712C812CF9
:1048000093E0992EA12CB12C8B8A9C8AAD8ABE8A0A
:104810009501840159CF4B015C0146165706680685
:10482000790608F01AC2DC01CB0184199509A609A2
:10483000B70903E076946794579447940A95D1F7A3
:10484000481659066A067B0608F400C2EB84FC840D
:104850000FEFE01AF00AE3CE18A619A61AA61BA6B7
:104860000C947D1861301EE3710719E481079105EE
:1048700008F4F3C38091170181110C94582C0E9405
:10488000031629984A805B806C807D802A961CAE36
:104890001DAE1EAE1FAE2A9721E02CAF212C1DA607
:1048A0001EA61FA618AA0C944C19198260E0AF9698
:1048B0008EAC9FACAF979ECB198260E0AF968EAC6A
:1048C0009FACAF9722CD198260E0AF968EAC9FACC3
:1048D000AF97DACC198260E0AF968EAC9FACAF9701
:1048E00091CC198260E0AF968EAC9FACAF9748CC6C
:1048F000198260E0AF968EAC9FACAF97FFCB198268
:1049000060E0AF968EAC9FACAF97B6CB449A89CAA5
:104910005E9881CA461657066806790608F0BCC339
:10492000DC01CB0184199509A609B709892F9A2FB3
:10493000AB2FBB27F8948093390190933A01A09351
:104940003B01B0933C017894299A80910301811135
:1049500004C001E06A960FAF6A9780910301882333
:1049600009F496C5809119018111F8C5339902C0E7
:10497000359BF4C5339B02C03599F0C58091180171
:104980008111ECC58A848DAA01E009AF0C94211B2A
:104990008F8C882009F42DC99AAC992009F429C973
:1049A0008A809B80AC80BD80811400E89006A104C1
:1049B000B10408F41EC91AAD113011F40C943F3340
:1049C0008F88988CA98CBA8C811400E89006A10479
:1049D000B10410F40C943330950184015401690141
:1049E000E12CF12C00E010E020E030E040E058E065
:1049F00060E070E080E090E00E94253EF9017901DE
:104A00008A01570199248824A9968CAE9DAEAEAE3A
:104A1000BFAEA9972E966FAD2E97CF010E9493122D
:104A200001E0A5960FAFA59762968EAC9FAC6297FA
:104A30008816990614F00C941630881999094C01BF
:104A4000AA2497FCA094BA2CE9E0880C991CAA1C13
:104A5000BB1CEA95D1F7A1968CAE9DAEAEAEBFAEB3
:104A6000A19762968EAC9FAC6297C401AA2797FD6E
:104A7000A095BA2F6C01BB24AA246796ACAEBDAE3C
:104A8000CEAEDFAE679700E86D960FAF6D9714E07E
:104A90006B961FAF6B9704E026960FAF2697BFC8A3
:104AA0008F8C8110CAC880911201882309F417C421
:104AB00080910E01882309F431C480911101811184
:104AC0000FC08091250190912601A0912701B091FE
:104AD00028010A97A105B10518F05E9A0E942F16C9
:104AE0001092160180911401882309F4E9C380E033
:104AF00090E00E947116109204011AAE2FC92998F5
:104B00000C94181B80E21FA20C948D1B41E04BAF4C
:104B10000C9470194A805B806C807D801CAE2224CE
:104B200023940C944C1941E04FAB0C94E01A809103
:104B300011015A2D581B5093110151113CCC8091F9
:104B400014019A2D981B9093140111E090E0A9C9CB
:104B500080911001F02FF81BF0931001F1112BCC74
:104B600080911201102F181B1093120111E090E098
:104B700098C980911701882309F4D9C4299A11E0B2
:104B800019AF37CD2A96CCAEDDAEEEAEFFAE2A978A
:104B90000C94BF188CA4811007C418E1812E912CAD
:104BA000A12CB12C20E033E040E050E02B8B3C8B7B
:104BB0004D8B5E8BDA01C9010C94161980910301AB
:104BC000882339F12F968FAC2F97811022C08091C6
:104BD000190181110CC0339902C0359B08C0339B69
:104BE00002C0359904C080911801882391F0629623
:104BF0000EAD1FAD62970134110514F40C94702FA3
:104C00008AAC81100C94CB32198201E02C960FAF44
:104C10002C97109219010E942416FC86EB860C94A6
:104C20004C1B8CA4811049C438E1C32ED12CE12C3B
:104C3000F12C812C43E0942EA12CB12C8B8A9C8AE0
:104C4000AD8ABE8A950184010C94861C11E9E12E7F
:104C5000FF24F3941AE01EABE2CCD301C201881901
:104C60009909AA09BB09E5CD082D013009F428C22C
:104C7000023009F4B3C50A3108F035C78A809B8039
:104C8000AC80BD8077276B2D5A2D492DA02FB0E029
:104C90009A01AB010E94E53D009F200111240FE025
:104CA000400E511C00245694479407945694479400
:104CB0000794542C402C662457FC6094762C611584
:104CC00015E071078105910508F0E2CC60E075E020
:104CD00080E090E0DDCC8FEF9FE00E947116809124
:104CE0000F01882349F0449890E049C95E985D9887
:104CF000809101018823B9F3449A90E040C9299A30
:104D0000809113018111EFCF449A90E038C991113D
:104D1000F2C8449A00E033C95E989091110125C908
:104D200090E02DC99A849DAA2D968FAC2D97609600
:104D30008FAE60972E969FAC2E9763969FAE63972B
:104D400001E00AAF2F961FAE2F970C94A4192230C2
:104D500019F080E00C94F81BA4968FACA49708156A
:104D600010F00C94CA2E882D801B26961FAD269716
:104D7000143011F40C94D32E81110C942D2F198220
:104D80000C94F81B992309F481C2809111018111BF
:104D90000CC08091250190912601A0912701B0912E
:104DA00028010A97A105B10548F480E01092160188
:104DB000882309F4E2CA90910E01C7CA5E9A0E9444
:104DC0002F1680911201F2CF911141C280911601EC
:104DD000882311F40C944E2F80911201882309F43A
:104DE00055C28091100181110EC0809131019091C6
:104DF0003201A0913301B09134010A97A105B105A8
:104E000010F00C94643210921501809114018823E3
:104E100009F4B7CA80910E01811123C2809111015A
:104E200081110FC08091250190912601A091270149
:104E3000B09128010A97A105B10518F05E9A0E9469
:104E40002F16109216019DCA982F9C6F2B968FAC2F
:104E50002B9789120C947C1BA3969FADA397990F57
:104E6000A2962FADA2972295269526952370922B78
:104E7000A2963FADA2973F70F92FF17090FF02C04C
:104E80000C94802F198220E041E0592F527091FF3D
:104E900002C04983242F92FF02C02F5F2983E92F8C
:104EA000E87093FF02C02F5F2983792F707194FF00
:104EB00002C02F5F2983692F607295FF02C02F5FA8
:104EC0002983492F407496FF02C02F5F298397FFE3
:104ED00002C00C946032321719F018AE0C947C1B8F
:104EE000FF2311F40C940B3610921201EE2311F4EF
:104EF0000C940336882311F40C946E38109211012F
:104F0000772311F40C94FE3510921401662311F4EA
:104F10000C94F635882311F40C944B381092100140
:104F2000552311F40C94F23581E080930101442360
:104F300011F40C94E73581E080930F0197FF02C0D4
:104F40000C94ED3581E08093130118AE0C947C1B1A
:104F50000E94941680910E018C6C0E948D160AE6B8
:104F60000A95F1F700C00E949B1680910E01982FC0
:104F7000946F8912B2CF198290911201992309F48A
:104F8000F4C198E0998338E220911401222311F0B2
:104F90003983932F20910101222311F0905C998392
:104FA00020911301222311F09058998320910F0131
:104FB000222311F09C5F9983882309F4CAC1809150
:104FC0001101882311F0905F99838091100188234B
:104FD00011F09E5F9983F92EF694292F2170022FEC
:104FE0000295000F000F007C21110F5F91FD0F5FF4
:104FF00092FD0F5F93FD0F5F94FD0F5F95FD0F5FB7
:1050000096FD0F5F97FD52C40E94941680910E0189
:10501000826C0E948D168F2D0E948D16802F0E940B
:105020008D168FE891E00197F1F700C000000E9413
:105030009B1618AE0C947C1B8CA4801608F098C1AB
:10504000802F8819823008F484CE8A8468968FAEC7
:1050500068970CA781E00C94F81B299A4A805B8022
:105060006C807D8031E03CAF212C0C944C198091F8
:105070001301811111C22B853C852F5F3F4F3C8767
:105080002B874A825B826C827D820C944C1B86FD4E
:10509000F8C118AE0C94661B19AE0C94211BA39694
:1050A0008FAFA39742E048AF0C94661B91110C940C
:1050B0007C1F449A0C94BF1F5D9890911001DDC92C
:1050C00010E2412E512C612C712C812C04E0902E89
:1050D000A12CB12C8B8A9C8AAD8ABE8A9501840151
:1050E000F3CA8CA4811076C5B8E18B2E912CA12C2B
:1050F000B12C20E033E040E050E02B8B3C8B4D8B1B
:105100005E8BDA01C9010C94151A013009F047C20F
:10511000A72DB0E021962CAD3DAD4EAD5FAD2197F2
:105120000E94E53D67968CAC9DACAEACBFAC67977A
:10513000860E971EA81EB91E67968CAE9DAEAEAEAB
:10514000BFAE679701E0801691040FEFA0060FE055
:10515000B0060CF4E2C58BAC882009F4D6C6809169
:105160000101882309F4D1C602E0812C912CAA24E4
:10517000AA942FE0B22E67968CAE9DAEAEAEBFAEB7
:105180006797EE24EA943FE0F32E8091120181119B
:105190000C94233480910E01882309F4D1C58091A9
:1051A000110181110FC08091250190912601A091DC
:1051B0002701B09128010A97A105B10518F05E9A60
:1051C0000E942F161092160180911401882309F471
:1051D000CFC563969FAC63976B969FAE6B97692D17
:1051E000C7010E94931262969FAF8EAF62970E9492
:1051F0007116002311F40C94A91E033009F480C326
:10520000013009F4EEC3023039F42D968FAC2D979E
:1052100060968FAE609702E026960FAF26970C94AB
:10522000A91EB694A794979487948B8A9C8AAD8A7A
:10523000BE8A4A805B806C807D8056E0769467945D
:10524000579447945A95D1F7950184013DCA8091AE
:105250001501882309F49CC480911201811175C83D
:1052600094CD8091100181110EC0809131019091F7
:105270003201A0913301B09134010A97A105B10523
:1052800010F00C941232109215017BC8809110011D
:1052900081110CC08091310190913201A0913301B4
:1052A000B09134010A97A105B10520F480E0109275
:1052B00015017ECD5D9A0E943A1680911201F7CFBA
:1052C00080910E01811168C38091160181110FCC6C
:1052D0005E9881E0809316010E942F1608CC809181
:1052E0000E01882309F463C38091110181110CC060
:1052F0008091250190912601A0912701B09128016C
:105300000A97A105B105F8F480E0109216018823F0
:1053100009F4E8CB80910E018111CFCB809110016F
:1053200081110EC08091310190913201A091330121
:10533000B09134010A97A105B10510F00C94103614
:1053400010921501CFCB5E9A0E942F168091120108
:10535000DCCF80911001882311F0905F99838091B8
:105360001101882309F437CE34CE30E290E00CCE20
:10537000882D801B67CEB701A6012A968CAC9DAC08
:10538000AEACBFAC2A97481959096A097B09D50107
:10539000C4010C94AC1816E02D961FAF2D972E96D5
:1053A0001FAE2E970C94F81B082D013009F48CC306
:1053B000023009F4F4C50A3110F00C9469327727F1
:1053C000672D562D452DA82DB0E09A01AB010E9406
:1053D000E53D889C90011124215F3F4F00243695C4
:1053E00027950794369527950794322F202D89010C
:1053F000222717FD2095322F611545E0740781059E
:10540000910510F00C94FA1860E075E080E090E0EF
:105410000C94FA1880910E01882309F4FFC2809140
:10542000110181110FC08091250190912601A09159
:105430002701B09128010A97A105B10518F05E9ADD
:105440000E942F161092160167961CAE1DAE1EAE5E
:105450001FAE679711E026961FAF26970C940F1E7C
:1054600080910E018111CDC28091160181110C94A1
:10547000FF1D5E9881E0809316010E942F160C9408
:10548000FF1D2B968FAF2B9781E088AF0C94661B86
:1054900021E029AF0C94211B80911701882309F486
:1054A0005AC54B855C854F5F5F4F5C874B874A824F
:1054B0005B826C827D820C944C1B082D013009F4B8
:1054C00071C3023009F47EC60A3110F00C94D13257
:1054D0008A809B80AC80BD8077276B2D5A2D492D0B
:1054E000A02FB0E09A01AB010E94E53D009F600152
:1054F00011240FE0C00ED11C0024D694C794079449
:10550000D694C7940794DC2CC02CEE24D7FCE094EE
:10551000FE2C611515E071078105910510F00C94C2
:105520006A1C60E075E080E090E00C946A1C0E94C8
:10553000241624CB01E069960FAF69970C94151BD4
:105540008A848DAA01E00F8F11E01FAB0C94E01A42
:105550000E94CB156B017C010C94C0192F968FAC67
:105560002F9781100FCA1092190162960EAD1FADD0
:105570006297013411050CF4B9C48AAC8110B6C429
:1055800019829A849DAA01E009AF11E02C961FAF01
:105590002C970C94211B00E092E00C94BF1FE12C8F
:1055A000F12C0C949D1EA72DB0E025962CAD3DADA1
:1055B0004EAD5FAD25970E94E53D6796ACACBDACA6
:1055C000CEACDFAC6797A61AB70AC80AD90AB601EB
:1055D000A50161507109413051056E4F7F4008F0BF
:1055E00062C36796ACAEBDAECEAEDFAE67976796D0
:1055F000EEACFFAC679700E080911201882309F4BC
:105600005FC380911401882309F46DC38091120156
:10561000E11418E0F1060CF032C381110C947E33D2
:1056200060966FAD6097C7010E94931262969FAF1C
:105630008EAF62970E947116002311F40C94B73B51
:105640008091140190910E01882309F483C1809107
:105650001201882309F45CC1992309F488C180915F
:10566000110181110FC08091250190912601A09117
:105670002701B09128010A97A105B10518F05E9A9B
:105680000E942F1610921601339902C0359B28C034
:10569000339B02C0359924C080911801811120C02C
:1056A0008091190181111CC060968FAC60976B9638
:1056B0008FAE6B972D969FAC2D9760969FAE60979F
:1056C0002E968FAC2E9763968FAE63971AAE1F8E71
:1056D0002C961FAE2C9726961FAE26970C94AE1EC6
:1056E000809103018823F9F01092190160969FAC14
:1056F00060976B969FAE6B972D968FAC2D976096AB
:105700008FAE60972E969FAC2E9763969FAE639751
:1057100001E00F8F2C961FAE2C9711E026961FAF3D
:1057200026970C94AE1E69968FAC6997811055C46C
:1057300060969FAC60976B969FAE6B972D968FACE3
:105740002D9760968FAE60972E969FAC2E9763969E
:105750009FAE639701E06A960FAF6A9711E01F8FC3
:105760002C961FAE2C9726960FAF26970C94AE1E44
:1057700080911201882309F465C580911401882362
:1057800009F432C58091120181114CC58BAC88207F
:1057900009F4A9C080910101882309F4A4C0812CD7
:1057A000912CAA24AA948FE0B82E67968CAE9DAE59
:1057B000AEAEBFAE6797EE24EA949FE0F92E01E00B
:1057C00069960FAF69970C949D1E08E02D960FAF58
:1057D0002D972E961FAE2E970C94F81BA8E24A2EFA
:1057E000512C612C712C812CB5E09B2EA12CB12C5D
:1057F0008B8A9C8AAD8ABE8A950184010C946423AD
:1058000020910E01211154C320911101211129C0B1
:10581000C0902501D0902601E0902701F09028014A
:105820000AE0C016D104E104F104D8F05E9AAA9609
:105830006FAFAA97AB967FAFAB97AC968FAFAC9795
:10584000AD969FAFAD970E942F16AD969FADAD97C9
:10585000AC968FADAC97AB967FADAB97AA966FAD7C
:10586000AA97109216010C94A92200E080911401CD
:10587000882311F40C94C62280910E018111A0C3DB
:105880008091160181110C94C6225E9881E080936C
:1058900016010E942F160C94C622809103018823C2
:1058A00009F49EC511E01FAB0C94E01A0F5FACCB5E
:1058B0000E9424161092170181E0809304016796DC
:1058C0001CAE1DAE1EAE1FAE67971F8E1B8E1C8EAC
:1058D0001D8E1E8E1A821B821C821D8226961FAE72
:1058E00026970C943F246B966FAD6B978FEF9FE0DC
:1058F0000E94931262969FAF8EAF62970E947116BC
:105900002D968FAC2D9760968FAE609703E084CC78
:10591000992309F406C38091110181110CC0809173
:10592000250190912601A0912701B09128010A97A5
:10593000A105B10548F480E010921601882309F40E
:10594000A3CE90910E0188CE5E9A0E942F16809170
:105950001201F2CF9111DBC280911601882311F45C
:105960000C944E3680911201882309F4DAC280919A
:10597000100181110EC08091310190913201A091EE
:105980003301B09134010A97A105B10510F00C94D0
:1059900010381092150178CE809115018111A7C899
:1059A0005D9881E0809315010E943A16A0C880910D
:1059B000100181110CC08091310190913201A091B0
:1059C0003301B09134010A97A105B10520F480E0BC
:1059D000109215019CCC5D9A0E943A16809112019A
:1059E000F7CF2E968FAC2E9763968FAE639714CC1D
:1059F00024E02D962FAF2D972E961FAE2E970C9448
:105A0000F81B8091150181110C94FF1D5D9881E0B8
:105A1000809315010E943A160C94FF1D809110018D
:105A200081110EC08091310190913201A09133011A
:105A3000B09134010A97A105B10510F00C946236BB
:105A40001092150167961CAE1DAE1EAE1FAE679775
:105A500001E026960FAF26970C940F1E6D967FAE31
:105A60006D9767961CAE1DAE1EAE1FAE6797E12CFC
:105A7000F12C0C94791E0E94CB156B017C011A85C8
:105A8000123014F00C94D41C8A809B80AC80BD80B2
:105A90008C149D04AE04BF0410F00C94021DD501BB
:105AA000C401AF968EAC9FACAF97C81AD90AEA0A68
:105AB000FB0A8C159D05AE05BF05B8F3AF969FAEEA
:105AC0008EAEAF970C94021DB0E28B2E912CA12CC0
:105AD000B12C80E094E0A0E0B0E08B8B9C8BAD8B90
